:020000040001F9
:10B0000010210020D9B00100F3B00100F5B001001B
:10B010000000000000000000000000000000000030
:10B02000000000000000000000000000F7B0010078
:10B030000000000000000000F9B00100FBB00100BA
:10B04000ADB20100FDB00100C9B30100FDB00100C7
:10B05000FDB001000000000035B10100FDB00100AD
:10B06000FDB00100FDB00100FDB00100FDB0010028
:10B07000FDB00100FDB00100FDB00100FDB0010018
:10B08000FDB0010001B30100FDB00100FDB0010001
:10B0900021B30100FDB00100FDB00100FDB00100D1
:10B0A000FDB00100FDB00100000000000000000044
:10B0B0000000000000000000000000000000000090
:10B0C0000448854600F024F80048004775B70100A1
:10B0D000C046C046102100200321094802680A43E7
:10B0E0000260084802680A43026007488047074830
:10B0F0000047FEE7FEE7FEE7FEE7FEE7FEE70000AB
:10B10000240500405405004029B30100C1B00100EE
:10B11000064C0125064E05E0E36807CC2B430C3CAA
:10B1200098471034B442F7D3FFF7CEFF10BF0100A9
:10B1300030BF0100F0B50024FF268BB00136012599
:10B1400027460694304600F015FD002807D05448E5
:10B150004068284203D0304600F004FD2C43361DE1
:10B160006D007F1CB6B2042FECD3FF257D35284639
:10B1700000F000FD002809D0284600F0F3FC680725
:10B18000044306AA0121002000F0D8FC454D200709
:10B1900014D00127002627420CD04348B2001118D2
:10B1A00008690969C004C00E8903AA58890F002ADA
:10B1B00000D090477F00761C042EECD3002C6DDA73
:10B1C00000200890401E63E0281940300778B90637
:10B1D000890E009100214156491C49D009A90098C7
:10B1E00000F058FB002843D0B8090190009800F007
:10B1F00051F980002F580198002F02D0032802D067
:10B200000DE0032834D1009808ABC20841079446EA
:10B21000985C490F01228A40104362469854009876
:10B22000052109078000401807210902401800681D
:10B2300006A98003800F0290009800F02BFB0028E5
:10B24000029802D0022802D012E0032810D10198FF
:10B25000032808D1029802281ED00221009800F08D
:10B260005BFC761CF6B2002F02D001990098B8471B
:10B27000641C042CA8D3002E10D06A4601210020A3
:10B2800000F05CFC06990098884207D00690089868
:10B2900000263446099097E70321DFE70BB0F0BDA5
:10B2A00000630040C818002000650040F8B5FF208A
:10B2B000013000F0F7FA002401250E4E0E4F002851
:10B2C00007D00E4804600120B0607D70002000F0BF
:10B2D000E9F8FF20053000F0E5FA002808D007481B
:10B2E000001D04600220B060BD70012000F0DAF89B
:10B2F000F8BD000000030040981800200001004045
:10B3000010B506490020086048608860C86003499D
:10B3100040390860486000F007FD10BD4011014051
:10B3200010B500F097FC10BD10B500F04BF90028E7
:10B3300005D01F491D484860C8131E4988611E4832
:10B34000018CC9B201290BD1828C120708D1028D60
:10B350001206120F042A03D1828D1206120F0AD090
:10B36000012921D1818C09071ED1018D0906090F00
:10B370000A2904D007E0114A01219160F5E7828D86
:10B380001206120F05D00D290ED1808D0006000F78
:10B390000AD10B480168012904D00A4901600168FB
:10B3A0000129FCD1C021416110BD0000DFFF07C0B1
:10B3B00000050040006C0040C00F00F00006004097
:10B3C00000EC06407593000010B50249024800F0F9
:10B3D00006FD10BDAC1800200020004002E008C8A7
:10B3E000121F08C1002AFAD170477047002001E0FF
:10B3F00001C1121F002AFBD170470000BFF34F8F1D
:10B4000004490348C860BFF34F8F00BFFDE7000049
:10B410000400FA0500ED00E00EB500210290009155
:10B420006A4601910148FFF7E9FF0EBD01400000A7
:10B430000022D243830004490428CA5002D30818CA
:10B440002030027770470000C8180020F0B50025B2
:10B45000ED43002A02D00023042601E0042308263D
:10B460000B4C04E09F00E7597F1C04D05B1CB342E7
:10B47000F8D32846F0BD26185DB2203635709E0000
:10B48000A151002AF5D1E11820310877F1E7000039
:10B49000C8180020024909182020085670470000EB
:10B4A000C818002070B5084C050009D01034216878
:10B4B000002907D008682060496828468847F6E7D1
:10B4C0000834F4E770BD000098180020F8B5234850
:10B4D000416800293ED00E6821494C688768807811
:10B4E000E11B0D022D0AED1C002814D101201D4A7C
:10B4F000000450601B4A403A50601B4940000860FD
:10B500001A4908601A49012008602F2000F0D2F97A
:10B51000124901208870B54200D23546E819000270
:10B520000F4B000A403318600D4A5168001B091B7D
:10B530000902090A0002000AC91C814209D950689F
:10B5400018602F2000F0B6F9012007494004803927
:10B550000860F8BD00F03EFBF8BD00007418002044
:10B56000001501404013014080E200E000E100E0EE
:10B570000010014010B50E4900230A784C78A24211
:10B5800012D0521CD2B20A70022A00D10B700A7873
:10B59000074B920018339A5802608868101800020E
:10B5A000000A8860012010BD0360002010BD00006B
:10B5B00074180020022902D1014909680847704720
:10B5C000701800201048018CC9B2012917D1818C54
:10B5D000090714D1018D09060A0F03D1828D1206C5
:10B5E000120F0ED0090F012903D1828D1206120FFE
:10B5F00007D0032903D1808D0006000F01D0002061
:10B600007047012070470000C00F00F0F0B5284CD3
:10B610002146103948688B68227886469C46CF7848
:10B62000667836E0182353436168521CC918A37822
:10B63000D2B2934200D100220B78022B02D0032B0E
:10B6400027D123E003464D68194603E0A94204D000
:10B650000B46C96900291CD0F8E7002919D08B4294
:10B6600008D1C069002805D1124F0125BD60002511
:10B67000AC4601270D68C969D961002909D00B685A
:10B680005B190B6005E00174C06900E0002100282F
:10B69000F9D19642C6D10649624610398A6048609F
:10B6A000CF70704501D00120F0BD0020F0BD00003A
:10B6B0008418002000100140F8B52C4E0446706834
:10B6C0000025009041E0002C02D02046E46920E0F3
:10B6D000264818231030017842684B43491CC9B2F0
:10B6E000D21801708378994200D1057011785068A2
:10B6F00001292CD1017C002929D191684160D168B0
:10B7000081601169C16051698161F178002900D0BF
:10B7100045604368B268164F991A0902090AB9428E
:10B7200002D28268891806E0D11A09028268090AE1
:10B730008A4202D9511A016000E00560456001218A
:10B7400085600174C56100F0CFFA002CBBD10748B9
:10B750001030017840788142BAD1716800988142F6
:10B7600001D00120F8BD0020F8BD000074180020B1
:10B77000FFFF7F00154800F063F8112000F03CF84F
:10B78000122000F039F8132000F036F8142000F0F1
:10B7900033F8152000F05CF80021152000F062F865
:10B7A000162000F055F80021162000F05BF8172055
:10B7B00000F04EF80021172000F054F8182000F097
:10B7C00047F80021182000F04DF8FEE7D1B701003E
:10B7D00010B5112809D0122809D0132809D014282F
:10B7E00002D1182000F04AF810BD1520FAE7162003
:10B7F000F8E71720F6E7000038B5044600F070F9C6
:10B80000002805D100F03EF9002801D0FFF704FE22
:10B81000094869460068009003204870074A20469E
:10B8200000F0DCF8002801D0FFF7F6FD01212046EA
:10B8300000F088F838BD000008BF0100B5B5010070
:10B84000002801D0014908607047000070180020EE
:10B850000522120780008018072203211202801897
:10B8600001607047012282400348002901D08260B4
:10B870007047C2607047000000050050044A5368DA
:10B88000012181400846984390601940D16070477B
:10B8900000050050C20843075B0F0120895C9840F7
:10B8A000084070470121890740180068002800D02F
:10B8B0000120704700280FD00849094A096800BFD5
:10B8C00000BF00BF00BF00BF00BF00BF00BF91426C
:10B8D00000D000BF0138F2D170470000941800205A
:10B8E0000024F4008207D30EFF229A408907090E34
:10B8F00010B5994000280BDA03071B0F083B9C0882
:10B900000C4BA400E318DC6994430C43DC6107E0B2
:10B910008408094BA400E418236893430B43236075
:10B92000C106C90E01208840044908600449086026
:10B9300010BD000000ED00E000E400E080E200E067
:10B9400000E100E0F3B581B0054600F02BF91F4F90
:10B950000028284617D0FFF79DFDC0192030007F32
:10B960008009032802D001280BD005E0184800699F
:10B97000E840C007C00F04D00321284600F0CCF8EF
:10B98000FEBD0221F9E700F019F90028F8D0284699
:10B99000FFF780FD04468000C11D0E4AF931801872
:10B9A000026989B2012632430261084600F0DAF8E2
:10B9B00002980028E4D02846FFF76CFD8000385834
:10B9C0000028DDD00448A6404660FEBDC81800200F
:10B9D000000500500065004000630040FEB50446CD
:10B9E00025480E460019202141560027C817134646
:10B9F000401C01D008273CE0F27819462046FFF7AA
:10BA000025FD0546401C33D0B07800280BD005201A
:10BA10000007A1000918072000020918086802227F
:10BA20009043086007E000217378204600910A46A1
:10BA3000019100F05DF8F078002810D00F48AA00BE
:10BA40001018317802690E4B1A400261E206D20CDE
:10BA50008907890B0A4301690A43026109E0064824
:10BA6000327840192030017F92011143017700E0C4
:10BA700004273846FEBD0000C818002000650040BD
:10BA8000FFE0FCFF70B5144D2879002801D0082094
:10BA900070BD114900204039421E0B182033401C54
:10BAA000C0B21A702028F8D300242046FFF7C0FC4B
:10BAB000641CE4B2082CF8D303210620FFF712FF20
:10BAC000FF207D3000F04EF801200449C007486097
:10BAD00001202871002070BD08190020006300407B
:10BAE00002480079002800D0012070470819002082
:10BAF00070B552000A439900049D0A432902059E2D
:10BB00000A43310405240A43240780000721001951
:10BB100009024018026070BD0522120780008218D9
:10BB2000072000021018026803231B049A430260D6
:10BB3000026809040A4302607047000038B5084BE8
:10BB400005241B68009324026B46411805E085001C
:10BB50005D592D192D69401C20C28142F7D838BD8E
:10BB60000CBF01000249401800210160704700002D
:10BB700000600040034940180068012800D0002000
:10BB800070470000006000404058002800D00120AD
:10BB900070470322120280184068084000D001203C
:10BBA000704700000449081820214156042901DB90
:10BBB0000120704700207047C81800200449081869
:10BBC00020214156042901D20120704700207047EE
:10BBD000C818002070B501240B49600408600B49A7
:10BBE00040108860094940398860094D6C602F20F9
:10BBF000FFF760FEAC60074D00242F20AC60FFF71C
:10BC000059FEAC7070BD000080E100E040130140BF
:10BC1000001001407418002030B5FF220523CD7DAF
:10BC2000002409321B02C318002D8450986905D0E6
:10BC30004B7ECA68D054487E401C487630BD1FB544
:10BC400001246B461C701972019206C86846904721
:10BC50001FBD0000FEB51F4C0025A768606802905C
:10BC60006846FFF787FC0190FFF7D0FC0646019875
:10BC7000002822D000230098616817E00E680A4669
:10BC8000864202D9301A086012E0801BF3180026A1
:10BC90001660D668D169B446002E07D0FE18360269
:10BCA000360A566066469660D56115460029E5D18C
:10BCB00028466160FFF700FD06E02846FFF7FCFC20
:10BCC000002801D1002E02D00298FFF7FFFB0020D0
:10BCD000E070FEBD741800200120024900050860D4
:10BCE0007047000000E200E010B50E4B59680029D3
:10BCF00006D002680C68A24204D8A21A0A60C16188
:10BD0000586010BD0B4604E00B46C969121B0029A0
:10BD100004D00C689442F7D3A41A0C600260C1618D
:10BD2000D86110BD74180020F8B51D4D6C68002C4A
:10BD300034D01C4800274068A968401A0602360A19
:10BD40002068B04218D8361AC7192246107CE46918
:10BD500000280FD000201074EB68002B07D09169E9
:10BD600050699847002805D0FFF756FB02E051695B
:10BD700090698847002CE3D129786878814206D100
:10BD8000401CC0B26870022801D1002068700449CC
:10BD90000006800D18310F50FFF79EFFF8BD000020
:10BDA0007418002000150140FF221D32002383502B
:10BDB0008B8A8A68D25C8B8A5B1C8B820521090284
:10BDC0004018C26170471FB500226B461A70197285
:10BDD00081680191827506C8684690471FBDF0B51D
:10BDE0000C46012185B005464902FFF7D2FE03212A
:10BDF00009026F180026002826D0FF212531284689
:10BE0000FFF7C2FE00281FD0FF2025302E508120D2
:10BE10008000B860A07E002801D101206860022166
:10BE2000684601700920C00129180868086003905D
:10BE3000E17D68460172E0680190E675267606CCE1
:10BE40006846083C90472DE004212846FFF7A1FEF4
:10BE5000002827D0FF2109312846FFF795FE00284A
:10BE600020D021462846FFF7D7FEE07D617E88423C
:10BE700018D1207E002807D0617EE268E075206935
:10BE8000E060267666760AE0A07E002801D10120D7
:10BE9000686081208000B860E675617EE2682046B7
:10BEA000FFF7CDFEFF271D3739462846FFF76CFE0A
:10BEB00000280FD0A08AA17D884204D221462846BE
:10BEC000FFF772FF06E0EE51A17D002902D0204667
:10BED000FFF779FFFF27453739462846FFF754FE1D
:10BEE00000280ED0EE51A07E002801D0012028604D
:10BEF000E07D002805D0E675617EE2682046FFF708
:10BF00009EFE05B0F0BD00000200000000000050E1
:10BF100030BF01007018002028000000DCB30100D1
:10BF200058BF01009818002078080000ECB3010009
:10BF30000000000000000000000000000000000001
:10BF400000000000000000000000000000000000F1
:08BF5000000000000024F400D1
:040000050001B0C185
:00000001FF
